{"contracts/vending.sol":{"vending":{"abi":[{"inputs":[],"name":"getToy","outputs":[{"internalType":"int256","name":"","type":"int256"}],"stateMutability":"nonpayable","type":"function"},{"inputs":[],"name":"toys","outputs":[{"internalType":"int256","name":"","type":"int256"}],"stateMutability":"view","type":"function"}],"evm":{"bytecode":{"linkReferences":{},"object":"6080604052606460005534801561001557600080fd5b50610179806100256000396000f3fe608060405234801561001057600080fd5b50600436106100365760003560e01c80633670d6171461003b578063b0303c3014610059575b600080fd5b610043610077565b60405161005091906100b1565b60405180910390f35b61006161007d565b60405161006e91906100b1565b60405180910390f35b60005481565b6000806000815461008d906100fb565b919050819055905090565b6000819050919050565b6100ab81610098565b82525050565b60006020820190506100c660008301846100a2565b92915050565b7f4e487b7100000000000000000000000000000000000000000000000000000000600052601160045260246000fd5b600061010682610098565b91507f80000000000000000000000000000000000000000000000000000000000000008203610138576101376100cc565b5b60018203905091905056fea264697066735822122021b768eb2ccf99f6279f3961fe5f5ba32bead4787c40b39021e06f26b4ba3ace64736f6c63430008180033","opcodes":"PUSH1 0x80 PUSH1 0x40 MSTORE PUSH1 0x64 PUSH1 0x0 SSTORE CALLVALUE DUP1 ISZERO PUSH2 0x15 JUMPI PUSH1 0x0 DUP1 REVERT JUMPDEST POP PUSH2 0x179 DUP1 PUSH2 0x25 PUSH1 0x0 CODECOPY PUSH1 0x0 RETURN INVALID PUSH1 0x80 PUSH1 0x40 MSTORE CALLVALUE DUP1 ISZERO PUSH2 0x10 JUMPI PUSH1 0x0 DUP1 REVERT JUMPDEST POP PUSH1 0x4 CALLDATASIZE LT PUSH2 0x36 JUMPI PUSH1 0x0 CALLDATALOAD PUSH1 0xE0 SHR DUP1 PUSH4 0x3670D617 EQ PUSH2 0x3B JUMPI DUP1 PUSH4 0xB0303C30 EQ PUSH2 0x59 JUMPI JUMPDEST PUSH1 0x0 DUP1 REVERT JUMPDEST PUSH2 0x43 PUSH2 0x77 JUMP JUMPDEST PUSH1 0x40 MLOAD PUSH2 0x50 SWAP2 SWAP1 PUSH2 0xB1 JUMP JUMPDEST PUSH1 0x40 MLOAD DUP1 SWAP2 SUB SWAP1 RETURN JUMPDEST PUSH2 0x61 PUSH2 0x7D JUMP JUMPDEST PUSH1 0x40 MLOAD PUSH2 0x6E SWAP2 SWAP1 PUSH2 0xB1 JUMP JUMPDEST PUSH1 0x40 MLOAD DUP1 SWAP2 SUB SWAP1 RETURN JUMPDEST PUSH1 0x0 SLOAD DUP2 JUMP JUMPDEST PUSH1 0x0 DUP1 PUSH1 0x0 DUP2 SLOAD PUSH2 0x8D SWAP1 PUSH2 0xFB JUMP JUMPDEST SWAP2 SWAP1 POP DUP2 SWAP1 SSTORE SWAP1 POP SWAP1 JUMP JUMPDEST PUSH1 0x0 DUP2 SWAP1 POP SWAP2 SWAP1 POP JUMP JUMPDEST PUSH2 0xAB DUP2 PUSH2 0x98 JUMP JUMPDEST DUP3 MSTORE POP POP JUMP JUMPDEST PUSH1 0x0 PUSH1 0x20 DUP3 ADD SWAP1 POP PUSH2 0xC6 PUSH1 0x0 DUP4 ADD DUP5 PUSH2 0xA2 JUMP JUMPDEST SWAP3 SWAP2 POP POP JUMP JUMPDEST PUSH32 0x4E487B7100000000000000000000000000000000000000000000000000000000 PUSH1 0x0 MSTORE PUSH1 0x11 PUSH1 0x4 MSTORE PUSH1 0x24 PUSH1 0x0 REVERT JUMPDEST PUSH1 0x0 PUSH2 0x106 DUP3 PUSH2 0x98 JUMP JUMPDEST SWAP2 POP PUSH32 0x8000000000000000000000000000000000000000000000000000000000000000 DUP3 SUB PUSH2 0x138 JUMPI PUSH2 0x137 PUSH2 0xCC JUMP JUMPDEST JUMPDEST PUSH1 0x1 DUP3 SUB SWAP1 POP SWAP2 SWAP1 POP JUMP INVALID LOG2 PUSH5 0x6970667358 0x22 SLT KECCAK256 0x21 0xB7 PUSH9 0xEB2CCF99F6279F3961 INVALID PUSH0 JUMPDEST LOG3 0x2B 0xEA 0xD4 PUSH25 0x7C40B39021E06F26B4BA3ACE64736F6C634300081800330000 "},"methodIdentifiers":{"getToy()":"b0303c30","toys()":"3670d617"}}}}}