{
  "_format": "hh-sol-artifact-1",
  "contractName": "vending",
  "sourceName": "contracts/vending.sol",
  "abi": [
    {
      "inputs": [],
      "name": "getToy",
      "outputs": [
        {
          "internalType": "int256",
          "name": "",
          "type": "int256"
        }
      ],
      "stateMutability": "nonpayable",
      "type": "function"
    },
    {
      "inputs": [],
      "name": "toys",
      "outputs": [
        {
          "internalType": "int256",
          "name": "",
          "type": "int256"
        }
      ],
      "stateMutability": "view",
      "type": "function"
    }
  ],
  "bytecode": "0x6080604052606460005534801561001557600080fd5b50610179806100256000396000f3fe608060405234801561001057600080fd5b50600436106100365760003560e01c80633670d6171461003b578063b0303c3014610059575b600080fd5b610043610077565b60405161005091906100b1565b60405180910390f35b61006161007d565b60405161006e91906100b1565b60405180910390f35b60005481565b6000806000815461008d906100fb565b919050819055905090565b6000819050919050565b6100ab81610098565b82525050565b60006020820190506100c660008301846100a2565b92915050565b7f4e487b7100000000000000000000000000000000000000000000000000000000600052601160045260246000fd5b600061010682610098565b91507f80000000000000000000000000000000000000000000000000000000000000008203610138576101376100cc565b5b60018203905091905056fea264697066735822122021b768eb2ccf99f6279f3961fe5f5ba32bead4787c40b39021e06f26b4ba3ace64736f6c63430008180033",
  "linkReferences": {},
  "deployedLinkReferences": {}
}